:020000040800F2
:10000000F0210020A1010008953A0008B52D000854
:10001000B1360008310A0008C9430008000000009A
:10002000000000000000000000000000CB3A0008C3
:10003000BD0A000800000000C93A0008CD3A0008D7
:10004000BB010008BB010008BB010008BB010008A0
:10005000BB010008BB010008BB010008BB01000890
:10006000BB010008BB010008BB010008BB01000880
:10007000BB010008BB010008BB010008BB01000870
:10008000BB010008BB010008BB010008BB01000860
:10009000BB010008BB010008BB010008BB01000850
:1000A000BB010008BB010008BB010008BB01000840
:1000B000BB010008BB010008BB010008BB01000830
:1000C000BB010008BB010008BB010008BB01000820
:1000D000BB01000805430008114300081D43000848
:1000E000BB010008BB010008BB010008BB01000800
:1000F000BB010008BB010008BB010008BB010008F0
:10010000BB010008BB010008BB010008BB010008DF
:10011000BB010008BB010008BB010008753B0008DB
:10012000BB010008BB010008350A0008BB0100083C
:10013000BB010008BB010008BB010008BB010008AF
:10014000BB010008BB010008BB010008BB0100089F
:10015000BB010008BB010008BB01000829430008DF
:10016000BB010008BB010008BB010008BB0100087F
:10017000BB010008BB010008BB0100080000000033
:10018000BB010008BB010008DFF810D000F0AAFB9B
:100190000048004765560008AFF30080F0210020BA
:1001A0000648804706480047FEE7FEE7FEE7FEE711
:1001B000FEE7FEE7FEE7FEE7FEE7FEE7653B000839
:1001C000890100082DE9F05F0546002092469B4614
:1001D00088460646814640241BE02846414647465D
:1001E000224600F078FA53465A46C01A914110D37D
:1001F00011461846224600F05FFA2D1A67EB0108F7
:100200004F4622460120002100F056FA17EB000964
:100210004E41201EA4F10104DFDC484631462A4647
:100220004346BDE8F09F40EA01039B0703D009E085
:1002300008C9121F08C0042AFAD203E011F8013BD2
:1002400000F8013B521EF9D27047D2B201E000F82B
:10025000012B491EFBD270470022F6E710B513466A
:100260000A4604461946FFF7F0FF204610BD2DE967
:10027000FE4F804681EA0300C00F0C46009021F03B
:10028000004123F00045B8EB0200A94105D24046E9
:10029000214690461C460B46024623F00040104380
:1002A00047D0270DC7F30A00C3F30A510290401A42
:1002B000019040286BDAC3F3130040F4801B0098D0
:1002C000924620B10023D2EB030A63EB0B0B01989B
:1002D0005946C0F14002504600F0EEF906460D4680
:1002E00050465946019A00F006FA10EB08006141A9
:1002F000002487EA115284EAE7731A4340D0009A37
:1003000062B3019A012A4FEA075215DC001B61EB28
:1003100002014FF0004202EA0752CDE90042001C00
:1003200041F5801132462B4600F03DFA03B0BDE89E
:10033000F08F40462146F9E7001B61EB0201001CEB
:1003400041F5801300185B412018A2F5001747EB18
:10035000030140EAD570B6196D4111E06D084FEA0E
:10036000360645EAC0754FEA0752001B61EB0201F1
:10037000001C41F5801149084FEA30000019514135
:1003800032462B4603B0BDE8F04F00F0FDB90098AF
:10039000012240000023D0EB020263EBE0730098DF
:1003A00021464FEAE074B8EB000061EB0401E9E795
:1003B00083F000435BE781F0004158E72DE9FE4FF1
:1003C00081EA030404F0004421F0004100944FF05E
:1003D000000B23F0004350EA01045ED052EA03040C
:1003E0005BD0C3F30A54C1F30A552C44A4F2F3348E
:1003F0000194A0FB0254C1F3130141F48011C3F333
:10040000130343F4801301FB024400FB034E840AF0
:10041000970A44EA815447EA8357A4FB0768029588
:100420008D0A05FB07854FEA932C04FB0C54270526
:10043000029D4FEA065847EA1637B5EB08056EEB02
:10044000070C870E920E47EA811742EA8312A7FB38
:100450000201B6EB0B0164EB00042B0D43EA0C33F5
:100460005E1844EB1C50DA465146E7FB0201C5F327
:1004700013044FEA0B3343EA14534FEA0432019C4E
:1004800043EA0603A4F10C040294009CCDE900B4F5
:1004900000F089F903B0BDE8F08F00200146F9E7CC
:1004A0002DE9F04D81EA030404F0004B21F00045F2
:1004B00014464FF0000A23F0004150EA050220D014
:1004C00054EA01021DD0C5F30A570246C5F31303CF
:1004D000C1F31300C1F30A5640F4801543F48013AE
:1004E000A7EB0608101BD64608F2FD3873EB050093
:1004F00002D308F1010801E092185B41B8F1000F46
:1005000003DA00200146BDE8F08D00204FF4801191
:10051000064684460EE0171B73EB050705D3121B36
:1005200063EB050306434CEA010C49084FEA30002F
:1005300092185B4150EA0107EDD152EA030012D054
:1005400082EA040083EA0501084305D0101BAB4191
:1005500006D20122002306E000224FF0004302E011
:100560006FF0010253101AEB06004CEB085110EB30
:100570000A0041EB0B01BDE8F04D00F005B90EB5E6
:10058000C10F80EAE0700844CA07002140F23343FB
:100590008DE80E000A460B4600F005F903B000BDD9
:1005A0000EB540F2334102910021CDE900110A4617
:1005B0000B4600F0F8F803B000BD70B5C1F30A5265
:1005C00001F000450024C1F3130140F2FF3341F470
:1005D00080119A4201DA002070BD40F233439A4202
:1005E000A2F2334203DC524200F075F800E0904082
:1005F0002C43F1D0404270BD00F0004230F000408A
:100600000AD0C10D01F56071C0F3160042EA015134
:10061000C2084007114370470020014670470000A0
:1006200030B5041E71F1000404DB4FF00044404279
:1006300064EB0101141E73F1000405DB1C464FF04E
:100640000043524263EB04038B4208BF824230BD39
:1006500030B5041E71F1000404DB4FF00044404249
:1006600064EB0101141E73F1000405DB1C464FF01E
:100670000043524263EB0403994208BF904230BDED
:1006800001F0004330B421F0004150EA010206D0ED
:100690000A0DA2F56072C1F31301002A02DC30BC1E
:1006A00000207047440F44EAC104C100E01830BC88
:1006B00000EBC25000F031B8202A04DB203A00FAE7
:1006C00002F1002070479140C2F1200320FA03F3A9
:1006D000194390407047202A04DB203A21FA02F0A7
:1006E0000021704721FA02F3D040C2F1200291406C
:1006F000084319467047202A06DBCB17203A41FAF7
:1007000002F043EAE07306E041FA02F3D040C2F19E
:10071000200291400843194670470029A8BF70473E
:10072000401C490008BF20F00100704710B4B0FA27
:1007300080FC00FA0CF050EA010404BF10BC7047C2
:1007400049B1CCF1200421FA04F411FA0CF118BFDC
:10075000012121430843A3EB0C01CB1D4FEA0061AB
:100760004FEA102042BF002010BC704700EBC3507E
:1007700010440029A4BF10BC7047401C490008BFAA
:1007800020F0010010BC704710B5141E73F1000476
:1007900008DA401C41F1000192185B411A4301D173
:1007A00020F0010010BD2DE9F04D92469B4611B19D
:1007B000B1FA81F202E0B0FA80F220329046FFF7FF
:1007C0007BFF04460F4640EA0A0041EA0B0153460C
:1007D0005A46084313D0114653EA010019D0C8F114
:1007E00040025046FFF777FF05460E4650465946F1
:1007F0004246FFF761FF084305D0012004E0204690
:100800003946BDE8F08D0020054346EAE0762C43EA
:1008100037430A986305E40AA0EB08000022FD0AAA
:1008200044EA47540A3002D500200146E9E70105B1
:1008300010196941DDE9084500196941BDE8F04D2D
:10084000A2E72DE9F04D00231A461B1A8A4103DB6B
:1008500000200146BDE8F08DC1F30A52C1F3130137
:1008600041F480154FF0000BD10702D100186D4103
:10087000521E0027044640F2FF11384601EB620A7F
:100880003E468046024600204FF48011FFF723FFCA
:10089000C2197141BB1846EB0100B4EB030C75EBB8
:1008A000000C04D3E41A65EB000517460E46241924
:1008B00008F101006D4180463428E3DDF91946EB6B
:1008C0000600091BA84103D24FF0FF32134601E096
:1008D000002213461BEB070046EB0A51BDE8F04D22
:1008E000FFF752BF064C074D06E0E06840F00103F9
:1008F00094E8070098471034AC42F6D3FFF748FC61
:1009000090720008B0720008464910B54A6822F497
:1009100040324A604A6843681A434A6001684A683C
:1009200022F480724A6001684A68036942EA03223D
:100930004A6001684A6822F040724A6001684A6869
:1009400083681A434A6001688A6822F400628A60F8
:1009500001688A68C3681A438A60816A6FF07062AE
:10096000D14201688A6822F070628A6001688A68F0
:100970000CD0836A1A438A6001688A6822F0405268
:100980008A6001688A68C36A1A4301E022F0405213
:100990008A6001688A6822F002028A6001688A68B7
:1009A000037E42EA43028A6090F820100029016821
:1009B0004A680FD042F400624A6001684A6822F433
:1009C00060424A6001684A68174C436A04EB43334B
:1009D0001A4301E022F400624A600168CA6A22F404
:1009E0007002CA620168CA6A838B104C04EB03531D
:1009F0001A43CA6201688A6822F400728A60016838
:100A00008A6890F8303042EA43228A6001688A6836
:100A100022F480628A6001688A68406942EA802024
:100A2000886010BD0023014000E0FFFF0000F0FFE0
:100A3000FEE70000014800F0B9BA0000A81A002043
:100A400001681823CAB2103AB2FBF3F2054B6FF3F8
:100A50000901032A9B5CC36500D9091D816508460D
:100A6000704700007067000810B5014600208B69D0
:100A70008A6A4FF0C07453B1B3F5005F15D072B1FC
:100A8000012A0CD0022A0AD0032A09D104E01AB1A3
:100A9000012A06D0022A03D1C96AC90100D5012062
:100AA00010BDC96AA142FAD010BD002AF7D0012AB0
:100AB000F2D0022AF3D0032AF3D010BD7047000011
:100AC00010B50B4C0BA0217803F080FC60786428F3
:100AD00001D300206070084AC0B221781154401C34
:100AE0006070BDE8104001220149044802F0C0B81E
:100AF0007600002025630000241D0020DC19002062
:100B000072B6FEE778B50024009490F83C20012AE4
:100B100019D0012280F83C200A6807230568092AB9
:100B200013D9EE680A3A02EB420293409E43EE600C
:100B30000B788A680A3B03EB43039A400368DD683D
:100B40002A43DA6010E0022078BD2E6902EB4202EF
:100B500093409E432E610B788A6803EB43039A40CF
:100B600003681D692A431A614A681F23072A13D2A2
:100B700005686E6B521E02EB820293409E436E63C9
:100B80000B790A885B1E92B203EB83039A400368D9
:100B90005D6B2A435A6327E005680D2A12D22E6B3B
:100BA000D21F02EB820293409E432E630B790A8888
:100BB000DB1F92B203EB83039A4003681D6B2A4349
:100BC0001A6311E0EE6A0D3A02EB820293409E43F3
:100BD000EE620B790A880D3B92B203EB83039A40D5
:100BE0000368DD6A2A43DA62164B0568144A9D429F
:100BF00006D10D68122D03D1556845F48005556066
:100C000005689D4218D10B68102B01D0112B13D110
:100C1000536843F400035360096810290CD10A4952
:100C20000A4A0968B1FBF2F101EB8101490000E0D9
:100C3000491E00910029FBD180F83C40002078BD7E
:100C400000230140002001401C00002040420F0012
:100C5000006C70470068C06C704770B504004FF0BE
:100C6000000503D0206C002610B107E0012070BD04
:100C7000204600F01DF8666484F83C60206CC006D5
:100C800010D4206C20F4885040F0020020642046EC
:100C9000FFF73AFE6664206C20F0020040F001008D
:100CA000206400E0012584F83C60284670BD000007
:100CB00010B586B0044614216846FFF7CDFA1149F5
:100CC000206888421CD110480021026842F48072DA
:100CD0000260006800F4807005900B4814380268C8
:100CE00042F001020260006800F00100059010204F
:100CF00000900320CDE901016946044800F0A2FA02
:100D000006B010BD002001404438024000000240FF
:100D10002DE9F041044600680D4681684FF0000758
:100D200049050BD58068C00508D5206C40F020002F
:100D3000206484F83C700120BDE8F08100F084FB61
:100D4000064613E0681C11D025B100F07DFB801B26
:100D5000A8420BD920680068800707D4206C40F0B7
:100D60000400206484F83C700320E5E720680068F4
:100D70008007E7D521686FF012000860206C40F40E
:100D8000007020642068816811F0405F13D1217EDB
:100D900089B9C16A11F4700F02D0806840050AD485
:100DA000206C20F480702064206CC00403D4206C7C
:100DB00040F0010020640020BEE7000018B50021CB
:100DC000009190F83C20012A07D0012280F83C20B5
:100DD00002689368DB0702D011E0022018BD936817
:100DE00043F0010393602E4A2E4B1268B2FBF3F2DC
:100DF00002EB420200E0521E0092002AFBD1026880
:100E00009368DB0742D0036C40F20164A34343F4D0
:100E10008073036453685B0505D5036C23F40053AA
:100E200043F480530364036CDB0404D5436C23F068
:100E30000603436400E0416480F83C101A496FF0F7
:100E40002203136049680068CA06184906D0884220
:100E500024D1816811F0405F13D01FE08842F8D0A0
:100E6000134A904203D1D1F80423D206F1D0114A9B
:100E7000904213D1D1F8041301F01F011029E8D3D7
:100E80000CE0816841F08041816007E0016C41F035
:100E900010010164416C41F001014164002018BD62
:100EA0001C00002040420F000023014000200140B0
:100EB000002101400022014090F83C1001290CD093
:100EC000012180F83C1001688A6822F001028A60E2
:100ED00001688968C90702D007E002207047016CE9
:100EE00021F4885141F001010164002180F83C1097
:100EF000084670472DE9F0410446876D00F0A4FADA
:100F0000064694F835000025022806D0802060654A
:100F100084F834500120BDE8F0812068016821F098
:100F2000160101602068416921F080014161206C57
:100F300008B9A06C20B12068016821F008010160A7
:100F40002068016821F0010101600CE000F07CFAEA
:100F5000801B052807D920206065032084F8350010
:100F600084F83450D7E720680068C007EED194F8C1
:100F70005C103F208840B860012084F8350084F878
:100F800034500020C7E790F83510022903D08021A3
:100F9000416501207047052180F83510006801681F
:100FA00021F0010101600020704700002DE9F843A5
:100FB00004464FF00009CDF8009063484FF41651F5
:100FC000A56D0068B0FBF1F72E6894F85C1008205E
:100FD00000FA01F131420FD021680A6852070BD59F
:100FE0000A6822F004020A6094F85C108840A86045
:100FF000606D40F00100606594F85C104FF00108EE
:1010000008FA01F0304208D021684969090604D580
:10101000A860606D40F00200606594F85C100420E8
:101020008840304208D021680968890704D5A86043
:10103000606D40F00400606594F85C1010208840FA
:10104000304218D021680968090714D5A8602068C3
:101050000168490304D50068000308D5A16C07E0C6
:101060000168C90503D4016821F008010160216C01
:1010700009B12046884794F85C102020884030420F
:1010800031D021680968C9062DD5A86094F83500CB
:1010900005282068016806D0490347D50068000389
:1010A0001DD4616C1CE021F01601016020684169CB
:1010B00021F080014161206C08B9A06C20B120684A
:1010C000016821F00801016094F85C103F2088401D
:1010D000A86084F8358084F83490216D1FE0E16BBE
:1010E00009B120468847606D00282BD0606DC0078D
:1010F00014D0052084F835002068016821F0010132
:1011000001600098401C0090B84203D82068006835
:10111000C007F6D184F8358084F83490E16C00295A
:1011200010D001B02046BDE8F04308470168C9056A
:10113000D5D4016821F01001016084F8358084F86D
:101140003490CCE7BDE8F8831C0000202DE9F04185
:10115000044600F079F906465CB1022084F83500B7
:10116000002584F834502068016821F001010160F5
:101170000DE00120BDE8F08100F066F9801B052834
:1011800005D920206065032084F83500F2E7206847
:101190000068C007F0D12268116820480140D4E9F6
:1011A00001031843D4E903363343184363691843F2
:1011B000A3691843E3691843236A18430843616A23
:1011C000042903D1D4E90B131943084310602068A4
:1011D0004069666A20F0070130460E430127042863
:1011E0000CD1A06A0643E06A40B12046FFF73CFC00
:1011F00020B14020606584F83570BAE72068466108
:101200002046FFF71DFC94F85C203F21914081604F
:10121000656584F835700020ACE700003F8010F071
:1012200070B5044600F010F90546601C02D0044871
:101230000078044400F008F9401BA042FAD370BDC6
:10124000100000202DE9F84FDFF8BCA10022012595
:1012500003264FF00F090AF1040BAAF1040E00BF98
:101260000B6805FA02F42340A34270D10F7907F00E
:101270000307012F01D0022F16D187684FEA4208D9
:1012800006FA08FC27EA0C07D1F80CC00CFA08FC97
:101290004CEA070CC0F808C04768A7430C79C4F3B0
:1012A000001494403C4344600C79E443A4070AD002
:1012B000C4684FEA420C06FA0CF7BC438F6807FA81
:1012C0000CF72743C7600C7904F00304022C12D1F9
:1012D000D40800EB840CDCF820405707FF0E09FA15
:1012E00007F824EA0804D1F8108008FA07F848EA59
:1012F0000408CCF8208004684FEA420C06FA0CF788
:10130000BC430F7907F0030707FA0CF72743076080
:101310004C6814F4403F70D03C4C276847F4804739
:101320002760246822F0030704F480440094384CBA
:1013300007EB040CDCF8084897074FEA177809FA1E
:1013400008F7BC43334FB84202D1002724E054E0F1
:10135000314FB84201D101271EE0304FB84201D1D0
:10136000022719E02E4FB84201D1032714E02D4F78
:10137000B84201D104270FE02B4FB84201D1052715
:101380000AE02A4FB84201D1062705E0284FB842AB
:1013900001D1072700E0082707FA08F72743CCF810
:1013A0000878DAF800405746D1F804C09C435FEA59
:1013B000CC2C00D51C433C60DBF800405F46D1F8E4
:1013C00004C09C435FEA8C2C00D51C433C60DEF8D3
:1013D00000407746D1F804C09C435FEA8C3C00D5BE
:1013E0001C433C60084F083F3C68D1F804C09C4354
:1013F0005FEACC3C00D51C433C60521C102AFFF431
:101400002FAFBDE8F88F0000083C0140443802408F
:101410000030014000000240000402400008024089
:10142000000C02400010024000140240001802406C
:10143000001C02400069084000D0012070470AB13A
:10144000816170470904FBE701488068704700002C
:101450001000002070B5040025D094F83D00002550
:1014600020B984F83C50204600F04EF9242084F83E
:101470003D002068016821F00101016020680168D9
:1014800041F4004101602068016821F400410160DD
:1014900000F0B2FA4D4A6168914201D84C4900E02F
:1014A0004C49884201D2012070BD4B492368B0FBF2
:1014B000F1F15E6826F03F060E435E60636893427A
:1014C00006D94FF4967359434FF47A73B1FBF3F195
:1014D0002368491C1E6A26F03F0631431962616881
:1014E000914210D84900401EB0FBF1F2521CC2F3E9
:1014F0000B02042A01D2042022E0B0FBF1F0401CD0
:10150000C0F30B001CE0A268F2B301EBC10303EBD4
:101510000116431EB3FBF6F35B1C43F480431B052B
:1015200049D092B301EBC10202EB0111401EB0FBA6
:10153000F1F0401CC0F30B0040F4804040F4004048
:101540002168CA694CF6FF739A431043C861D4E915
:10155000071001432068026822F0C00211430160B5
:10156000D4E9030101432068826848F2FF339A43BB
:1015700011438160D4E9050108432168CA6822F05B
:10158000FF021043C86001E00EE016E02068016829
:1015900041F0010101602564202084F83D002563AD
:1015A00084F83E50002070BD01EB4106431EB3FBA2
:1015B000F6F35B1CB3E70120C2E701EB4101401EDB
:1015C000B0FBF1F0401CC0F30B00B7E7A0860100B0
:1015D00080841E0000093D0040420F002DE9F84FB5
:1015E0001F4690468A460446DDF82890FFF72CFFF8
:1015F000054694F83D0020287FD119230122404957
:101600002046009501F062FC002876D194F83C0059
:10161000012872D0012084F83C0020680168C907C5
:1016200003D1016841F0010101602068016821F4E3
:1016300000610160212084F83D00102084F83E0004
:1016400000262664C4F824806785608D20852D4897
:10165000E0622B464A465146204601F0C3FB90B952
:10166000206841698069009036E02A464946204654
:1016700001F0ABFC50B1206C042804D12068016853
:1016800041F4007101600120BDE8F88F606A2168B3
:1016900000780861606A401C6062618D491E618546
:1016A000218D491E89B2218522685369DB435B077E
:1016B0000BD451B100781061606A401C6062608D8B
:1016C000401E6085208D401E20852A4649462046C2
:1016D00001F0D6FB0028CED1208D0028C5D154F8CA
:1016E0003D0B016841F400710160202004F81E09DF
:1016F000E67766770020C7E7FFE70220C4E700002F
:10170000020010000000FFFF10B586B0044614214F
:101710006846FEF7A1FD13492068884220D112488F
:101720000021026842F002020260006800F002003C
:101730000590C02000901220CDE901010320039004
:101740000420049069460948FFF77CFD06481030E4
:10175000016841F400110160006800F40010059078
:1017600006B010BD00540040303802400004024072
:101770001CB502238DF804000A208DF80510009096
:1017800001AA78210148FFF729FF1CBDBC160020E3
:10179000024881680278114481607047100000207F
:1017A0000B4810B5016841F400710160016841F413
:1017B00080610160016841F480710160032000F0E4
:1017C0006FF80F2000F006F800F024F8002010BD9C
:1017D000003C024070B50D4D04464FF47A712878F4
:1017E000B1FBF0F00A490968B1FBF0F000F00AFB28
:1017F00048B9102C07D200222146501E00F030F8C4
:1018000000206C6070BD012070BD00001000002041
:101810001C0000200A4808B5016841F480410160BD
:10182000006800F4804000900548001F016841F006
:1018300080510160006800F08050009008BD0000F9
:1018400044380240002809DB00F01F0201219140CA
:101850004009800000F1E020C0F80011704700004E
:10186000F0B40E4B1B680C46C3F30223C3F107050B
:10187000042D00D90425191D072901D2002300E0F9
:10188000DB1E012606FA05F1491E214099409E40C3
:10189000761E16403143F0BC02F0C0BD0CED00E0F6
:1018A000064900F0070208684FF6FF03184040EAB7
:1018B0000220034A10430860704700000CED00E06E
:1018C0000000FA052DE9F0470E46050065D0DFF867
:1018D0001481D8F80000F7B200F00700B04207D238
:1018E00088F80070D8F8000000F00700B04254D12A
:1018F00028683D4C810712D5400703D5206840F485
:10190000E05020602878000703D5206840F460404C
:1019100020602068A96820F0F00008432060287843
:10192000C0072DD0304968680839012812D0022834
:1019300013D0032811D00968890700292DDA2168FE
:1019400021F0030101432160FFF77EFD814641F252
:10195000883A0EE009688903EFE709688901ECE736
:10196000FFF772FDA0EB0901514502D90320BDE844
:10197000F0872068696800F00C00B0EB810FEFD1B0
:10198000D8F80010404601F00701B14207D90770AE
:10199000006800F00700B04201D00120E7E7287896
:1019A000400705D52068E96820F4E050084320602E
:1019B0002878000706D52068296920F4604040EAAD
:1019C000C100206000F038F82168084AC1F3031113
:1019D000515CC8400649086006480068FFF7FAFEF7
:1019E0000020C4E7003C0240083802407867000845
:1019F0001C00002014000020044805490068096804
:101A0000044AC1F38221515CC84070471C00002089
:101A100008380240886700080448054900680968DA
:101A2000044AC1F34231515CC84070471C00002099
:101A30000838024088670008154810B5006810F0A3
:101A40000C02144813D04110042A0FD0082A0ED1DA
:101A50000F4C241F2268236802F03F025B0207D567
:101A60002068C0F38810A0FB010106E0084610BD05
:101A70002168C1F38811A1FB00010023FEF7A2FB3E
:101A80002168C1F30141491C4900B0FBF1F010BDD0
:101A9000083802400024F4002DE9F84F04006ED00D
:101AA0002078DFF84C93C007A9F104054AD009F16A
:101AB00004000168C1F38101012908D00068C0F366
:101AC000810002280AD1D9F80000400206D5286812
:101AD000800337D560680028E1D033E06068B0F556
:101AE000803F10D0B0F5A02F286810D020F48030AF
:101AF0002860286820F4802028606068A8B1FFF77B
:101B0000A3FC06460DE0286840F48030F4E740F47A
:101B100080202860F7E700BFFFF796FC801B642851
:101B200073D828688003F7D50CE0FFF78DFC0646D4
:101B300005E000BFFFF788FC801B6428F0D8286808
:101B40008003F7D42078DFF8AC8280074FF0000ADA
:101B50003ED5A748001D016811F00C0F08D00068A1
:101B6000C0F3810002280BD1D9F80000400207D44D
:101B70002868800716D5E068012800D112E033E11B
:101B8000E068B8B10120C8F80000FFF75DFC064628
:101B900005E000BFFFF758FC801B0228C0D828686A
:101BA0008007F7D52868216920F0F80040EAC100D5
:101BB00028600DE0C8F800A0FFF746FC064604E0E8
:101BC000FFF742FC801B02281FD828688007F7D443
:101BD0002078000722D5864F87486169703771B138
:101BE00001210160FFF730FC064604E0FFF72CFC02
:101BF000801B022809D838688007F7D50EE0C0F8A6
:101C000000A0FFF721FC064605E082E0FFF71CFC80
:101C1000801B02287DD838688007F7D420784007D9
:101C200068D5DFF8CCB100270BF13C0BDBF80000E6
:101C3000C0000BD4DBF8001041F08051CBF800104D
:101C4000DBF80000012700F0805000906B4E3068F8
:101C5000C00510D4306840F480703060FFF7F4FBAA
:101C6000009005E0FFF7F0FB0099401A022850D8D9
:101C70003068C005F6D55E4EA0686C3601280FD0DE
:101C80000528306810D020F001003060306820F066
:101C900004003060A068B8B1FFF7D6FB00900FE0F9
:101CA000306840F00100F4E740F004003060F7E7EE
:101CB000FFF7CAFB0099411A41F28830814266D889
:101CC00030688007F4D50EE0FFF7BEFB009007E018
:101CD000FFF7BAFB0099411A41F28830814256D889
:101CE00030688007F4D42FB1DBF8001021F0805168
:101CF000CBF80010A069C8B33D49091D0968C1F3BC
:101D0000810102294AD00228504607D0C8F8600055
:101D100000E03CE0FFF798FB04463BE04746C8F88C
:101D20006000FFF791FB064605E000BFFFF78CFB64
:101D3000801B02282BD828688001F7D4D4E907013A
:101D40000843A16A2E4A490802EB0141626A41EA4E
:101D50008211084394F82C1040EA0161C9F8001080
:101D600001203866FFF770FB044606E03EE000BF46
:101D7000FFF76AFB001B022809D828688001F7D505
:101D800034E000BFFFF760FB001B022802D90320EC
:101D9000BDE8F88F28688001F4D427E00128F7D047
:101DA000D9F80000E26900F4800191421CD1226A56
:101DB00000F03F01914217D147F6C071626A0140BD
:101DC000B1EB821F10D1A26A4FF0FF3300F4403113
:101DD00003EB5202B1EB024F06D194F82C1000F045
:101DE0007060B0EB016F01D00120D1E70020CFE798
:101DF0000438024000004742800E47420070004015
:101E00000000FFFF10B5401EB0F1807F01D301201C
:101E100010BD4FF0E02460610F21601702F0FEFA60
:101E20000020A06107202061002010BD704770478E
:101E300070B590F83C20012A32D0012480F83C4053
:101E4000022280F83D2003685A689D6822F07006DF
:101E50000A6832435A60134B02689A4214D0B2F1B6
:101E6000804F11D0104B9A420ED0104B9A420BD09B
:101E70000F4B9A4208D00F4B9A4205D00E4B9A4214
:101E800002D00E4B9A4204D1496825F080031943D1
:101E9000916080F83D40002180F83C10084670BDFC
:101EA000022070BD00000140000400400008004016
:101EB000000C0040000401400040014000180040B8
:101EC00010B5040003D094F83D0010B107E00120E4
:101ED00010BD002084F83C00204600F01FF80220CE
:101EE00084F83D00211D206801F034FF012084F8B2
:101EF000460084F83E0084F83F0084F8400084F8EF
:101F0000410084F8420084F8430084F8440084F8D7
:101F1000450084F83D00002010BD000008B5234AAC
:101F200001682348914207D1016841F0080101602E
:101F3000006800F0080020E01E4A914211D10168BB
:101F400041F0200101600068002200F020000090B4
:101F500002213720FFF784FCBDE808403720FFF757
:101F600071BC1348144A001D914208D1016841F424
:101F700080310160006800F48030009008BD0F4A95
:101F8000914207D1016841F400310160006800F41A
:101F90000030F2E70A4A9142F0D1016841F4802111
:101FA0000160006800F48020E7E70000000C0040BA
:101FB000403802400014004000400140004401400D
:101FC0000048014090F83D10012901D001207047E0
:101FD000022180F83D100168CA6842F00102CA601F
:101FE00000681149884214D0B0F1804F11D00F49D8
:101FF00088420ED00E4988420BD00E49884208D044
:102000000D49884205D00D49884202D00C498842CA
:1020100004D1816801F00701062903D0016841F06D
:1020200001010160002070470000014000040040F1
:1020300000080040000C0040000401400040014046
:10204000001800400168CA6822F00102CA600168F5
:102050000A6A41F211131A4207D10A6A9B101A4206
:1020600003D10A6822F001020A60012180F83D10C4
:102070000020704770B5044690F83C000025012808
:1020800017D0012684F83C60022084F83D002068C7
:10209000826822F0770222F47F428260086850282A
:1020A00038D00DDC20284FD005DC90B3102811D19A
:1020B0004AE0022070BD302846D040280AD13BE0DB
:1020C00060282FD070280DD0B0F5805F03D0B0F518
:1020D000005F12D0012584F83D60002084F83C00A8
:1020E000284670BDCB68D1E90121206801F0A3FE2C
:1020F0002068816841F0770109E0CB68D1E90121CE
:10210000206801F098FE2068816841F48041816078
:10211000E1E719E0CA684968206801F061FF5021D1
:10212000206806E0CA684968206801F06AFF6021FB
:10213000206801F08AFECEE7CA684968206801F08D
:102140004FFF40212068F4E7226801461046F0E77F
:102150002DE9F0410D46040003D094F83D0018B17C
:1021600008E00120BDE8F081002084F83C00204612
:1021700000F040F8022084F83D002068816844F2B5
:10218000070291438160211D206801F0E3FD226870
:1021900090689169166A2B68AF69034340F2033077
:1021A000814341EA0721A868EF6908434FF6FC41E3
:1021B0008843E96840EA0720014328692F6A000143
:1021C00040EA0730084369686D6926F0AA0646EAC6
:1021D0000515294393602268906154F8460B01620B
:1021E000012004F81F09E0752076E0762077A075BD
:1021F0000020B7E770B586B0044614216846FEF7A4
:102200002BF84648236800244549022501268342CD
:1022100019D143481430026842F00102026000689C
:1022200000F001000590086840F0100008600868A0
:10223000694600F0100005904FF420600090CDE951
:102240000154384845E0364A37481032B3F1804FE0
:1022500018D0364EB34243D1136843F002031360E3
:10226000126802F0020205920A6842F001020A6056
:10227000096801F001010591C0210091CDE90154E7
:10228000694647E0136843F001031360126802F0E7
:10229000010205920A6842F001020A600A6802F02F
:1022A000010205920A6842F002020A60096801F020
:1022B0000201059120210091CDE90154CDE90346A9
:1022C0006946FEF7BFFF08200090CDE90154184889
:1022D0006946CDE9034600BFFEF7B4FF06B070BD06
:1022E00014488342FAD1106840F00400106010686E
:1022F00000F004000590086840F0080008600868D5
:10230000694600F0080005904FF440500090CDE978
:1023100001540948CDE90345DEE700000000014013
:10232000303802400010024000000240000400402B
:102330000004024000080040000C024070B590F814
:102340003E60044690F83F5090F8423090F84320A9
:10235000022021B104290ED0012E1BD114E0012E40
:1023600018D1012B16D184F83E0084F842000122D6
:102370000021206820E0012D0CD1012A0AD184F827
:102380003F0084F8430014E0012D03D1012B01D15B
:10239000012A01D0012070BD84F83E0084F83F007E
:1023A00084F8420084F8430001220021206801F0F3
:1023B00035FD01220421206801F030FD206801680C
:1023C00041F001010160002070BD704770B5044606
:1023D000006801694FF00005C943890715D4C16839
:1023E000C943890711D4E91E0161012020772068C3
:1023F00080698007204602D0FFF7E7FF04E000F085
:1024000001F9204600F093F9257720680169C94356
:10241000490717D4C168C943490713D46FF00401B1
:102420000161022020772068806910F4407F2046F7
:1024300002D0FFF7CAFF04E000F0E4F8204600F005
:1024400076F9257720680169C943090716D4C16860
:10245000C943090712D46FF00801016104202077F5
:102460002068C0698007204602D0FFF7AEFF04E075
:1024700000F0C8F8204600F05AF925772068016975
:10248000C943C90617D4C168C943C90613D46FF03C
:1024900010010161082020772068C06910F4407F96
:1024A000204602D0FFF791FF04E000F0ABF8204691
:1024B00000F03DF9257720680169C943C90708D1B3
:1024C000C168C943C90704D1891E0161204600F0D3
:1024D00093F920680169C943090609D4C168C94351
:1024E000090605D46FF0800101612046FFF79EFCCC
:1024F00020680169C943490609D4C168C94349062E
:1025000005D46FF040010161204600F076F92068A3
:102510000169C94389060BD4C168C943890607D438
:102520006FF0200101612046BDE87040FFF77FBCDD
:1025300070BD000070B586B0044614216846FDF7F2
:102540008BFE24682748002227490223844210D1A9
:10255000086840F0010008600868694600F0010062
:1025600005900F200090CDE901322048CDE90323EA
:1025700012E01F480325844212D1086840F0100081
:1025800008600868694600F010000590602000901F
:10259000CDE90132174821E0FEF754FE06B070BDC8
:1025A000154E1648B44209D10C6844F002040C6080
:1025B000096801F00201059181150BE0104EB4424B
:1025C000ECD10C6844F002040C60096801F00201CF
:1025D000059171150091CDE901326946CDE90325D8
:1025E000DAE70000000C00403038024000000240F2
:1025F000004001400010024000440140000402403D
:1026000000480140704770B5044690F83C00002631
:102610000D4601280FD0012084F83C006AB1042A3D
:102620001DD0082A2FD00C2A3FD00126002084F884
:102630003C00304670BD022070BD206801F00EFCE9
:102640002068816941F0080181612068816921F079
:1026500004018161206881692A69114311E02068C1
:1026600001F02CFC2068816941F4006181612068DF
:10267000816921F480618161206881692A6941EA68
:1026800002218161D2E7206801F04EFC2068C16917
:1026900041F00801C1612068C16921F00401C161F4
:1026A0002068C1692A69114311E0206801F070FCBB
:1026B0002068C16941F40061C1612068C16921F4E9
:1026C0008061C1612068C1692A6941EA0221C16152
:1026D000ACE710B5040003D094F83D0010B107E05A
:1026E000012010BD002084F83C00204600F01EF8B8
:1026F000022084F83D00211D206801F02BFB012001
:1027000084F8460084F83E0084F83F0084F84000D6
:1027100084F8410084F8420084F8430084F84400BF
:1027200084F8450084F83D00002010BD70477047D4
:1027300010B50446022249B104290ED0082913D04D
:1027400094F84100012816D0012010BD94F83E00F5
:102750000128F9D184F83E200FE094F83F000128C9
:10276000F2D184F83F2008E094F840000128EBD132
:1027700084F8402001E084F841200122206801F023
:102780004DFB16492068164A884201D0904203D179
:10279000436C43F4004343642068884213D0B0F193
:1027A000804F10D00F4988420DD00F4988420AD07F
:1027B0000E49884207D0904205D00D49884202D088
:1027C0000C49884204D1816801F00701062903D031
:1027D000016841F001010160002010BD00000140CE
:1027E000000401400004004000080040000C0040CC
:1027F0000040014000180040704770477047704724
:10280000F8B5016804460868CA684B6910F00F0FF4
:102810004FF0000559D003F0010602F490773743DA
:1028200065D0C10705D0D10503D5216C41F0010168
:102830002164410705D5D90703D0216C41F002017D
:102840002164810705D5D90703D0216C41F004012B
:102850002164010707D502F02001314303D0216C28
:1028600041F008012164216C00293AD0800604D58A
:10287000900602D5204601F005FC20684069216CD5
:10288000C0F38010090700D460B3204601F0D3FBE9
:1028900020684069400621D52068143050E8001FA8
:1028A00021F0400140E80012002AF5D1A06BA8B148
:1028B0006C490165A06BFEF766FB002811D0A06B88
:1028C000016D01B0BDE8F040084783060FD59306BF
:1028D0000DD52046BDE8F84001F0D4BB2046FFF7F7
:1028E0008EFFF8BD2046FFF78AFF2564F8BD266BF2
:1028F0002023012E79D1C60677D5D60675D508686E
:10290000486800904869400640D5A16B0868406857
:102910000004000CEAD0A28D8242E7D9E085C869A4
:10292000B0F5807F2DD020680C3050E8001F21F4D6
:10293000807140E80012002AF5D12068143050E878
:10294000001F21F0010140E80012002AF5D12068A3
:10295000143050E8001F21F0400140E80012002A26
:10296000F5D184F83E30256320680C3050E8001F14
:1029700021F0100140E80012002AF5D1A06BFEF70B
:10298000B9FAA08DE18D401A81B229E0A08DE18DC8
:10299000401A81B2E08D0028A8D00029A6D0206876
:1029A0000C3050E8002F22F4907240E80026002EF0
:1029B000F5D12068143050E8002F22F0010240E8E1
:1029C0000026002EF5D184F83E30256320680C30B7
:1029D00050E8002F22F0100240E80023002BF5D130
:1029E0002046FFF70BFFF8BDFFE705062BD51506C0
:1029F00029D594F83D002128F5D1A068B0F5805F75
:102A000001D12069B0B1206A411C2162216800789F
:102A10004860E08C401E0004000CE084E3D1206894
:102A2000C16821F08001C1602068C16841F04001A7
:102A3000C160D8E7206A0088C0F308004860206AB7
:102A4000801C2062E5E74006CDD55006CBD5CA688C
:102A5000204622F04002CA6084F83D3000F0A9F917
:102A6000C1E700002740000870B5040004D094F8C6
:102A70003D00002510B106E0012070BD84F83C50F7
:102A8000204600F023F8242084F83D002068C16827
:102A900021F40051C160204601F054FB2068016917
:102AA00021F4904101612068416921F02A014161CE
:102AB0002068C16841F40051C1602564202084F879
:102AC0003D0084F83E00002070BD0000F0B587B0E6
:102AD000064614216846FDF7BFFB5C495A48D6F804
:102AE00000E00024594A1439022503274FF0070C4F
:102AF000864537D1106840F010001060106800F073
:102B000010000590086840F001000860086802ABFA
:102B100000F0010005907802CDE9000583E89010EF
:102B200069464B48FEF78EFB4B4D4A4828604FF0F4
:102B30000060C5E901044014C5E903406C61AC6163
:102B4000EC612C6228466C62FEF700FB08B1FDF7D1
:102B5000D7FFB563002203212520AE63FEF780FE78
:102B6000252024E0394B3D4E1B1F3D48B64522D160
:102B70001A6842F400321A601A6802F400320592B0
:102B80000A6842F008020A60096802AA01F0080116
:102B900005916021CDE9001582E890106946FEF7A5
:102BA00051FB002201212620FEF75AFE2620FEF7C7
:102BB00049FE07B0F0BD2B4EB64520D11A6842F44D
:102BC00080221A601A6802F4802205920A6842F094
:102BD00008020A60096802AA01F0080105914FF491
:102BE0004071CDE9001582E890106946FEF72AFB96
:102BF000002211462720FEF733FE2720D7E71A4888
:102C00008645D6D1106840F020001060106800F0B2
:102C100020000590086840F00400086008680294ED
:102C200000F004000590C020CDE900050820CDE9A2
:102C3000037069460D48FEF705FB00221146472048
:102C4000FEF70EFE4720B2E7001001404438024074
:102C50000000024040640240A81A002000440040E6
:102C6000000C0240004800400014014000080240EF
:102C700090F83E30202B0ED159B152B190F83C3033
:102C8000012B08D0012380F83C300023036301F0BE
:102C9000DFBA0120704702207047000010B50446DB
:102CA0000068114988420AD10A2301220F491048BD
:102CB00000F026F801220D490D48FFF7D9FF0D4914
:102CC0002068884201D1FDF7FBFE0B49206888424D
:102CD00001D101F02FFB09492068884203D1BDE8EA
:102CE000104003F0E3BC10BD001001400C000020B8
:102CF00098190020004400400048004000140140A2
:102D00002DE9F843044690F83D001F4616460D464F
:102D100020284CD1C5B1BEB194F83C00012846D062
:102D2000012084F83C004FF00008C4F840802120C6
:102D300084F83D00FEF788FBA6848146E684A068FF
:102D4000B0F5805F03D004E00120BDE8F88320697E
:102D500028B12E465FF0000584F83C800EE0002686
:102D6000FAE78021204601F090FAA0B9AEB116F83A
:102D7000010B21684860E08C401EE084E08C4B46EB
:102D80004FF0000200970028EBD14FF040012046A1
:102D900001F07BFA30B10320D7E735F8020BC0F31E
:102DA0000800E6E7202084F83D000020CDE702205F
:102DB000CBE77047FEE701684A69D24352050FD45A
:102DC0006FF480624A61002140F8301F2022427374
:102DD0008173026942F004020261017301207047AD
:102DE00000207047F8B50446C06A1E460D461746D7
:102DF000082807D0012805D010F5803F02D0206BAD
:102E0000122804D12068016841F4807101601346E2
:102E100000224FF001112046009600F057F840B113
:102E200020680068C00502D54FF4007020640320BC
:102E3000F8BD2069B0F5804F0ED00620216800EA69
:102E4000D51040F0F000086133463A460B49204661
:102E500000F070F878B902E005F0FE0000E0E8B29A
:102E600021680861054933463A46891F204600F02B
:102E700061F80028DCD00120F8BD00000800010046
:102E800070B516460D4604460DE02046FFF793FF49
:102E900008B1012070BD681C05D0FEF7D5FA801B73
:102EA000A84207D835B120684069C0434007ECD438
:102EB000002070BD002044F8300F20216173A07302
:102EC000216941F0200121612073E2E72DE9F047FB
:102ED0001E4690460D460446C1F30747DDF8209094
:102EE00008E0701C06D0FEF7AFFAA0EB0900B04274
:102EF0000FD876B12068012F18D0806925EA00002C
:102F00000004000C14D000214145EAD00020BDE8A7
:102F1000F087002044F8300F20216173A0732169ED
:102F200041F02001216120730120F0E74069E5E7CD
:102F30000121E9E72DE9F0479A4691460E460446FD
:102F400000254FF02008C1F3074725E020684069BD
:102F5000C043400514D42068016841F40071016049
:102F600021686FF480604861256384F83D8084F8AF
:102F70003E50206C40F00400206484F83C501FE078
:102F8000B9F1FF3F08D0FEF75FFAA0EB0A0149450F
:102F90000CD8B9F1000F09D02068012F13D0806937
:102FA00026EA00000004000C0BD0CFE744F8305FA5
:102FB00084F80D80A573206940F0200020612573FE
:102FC0000120BDE8F0874069EAE770B516460D4676
:102FD00004460DE02046FFF7EEFE08B1012070BD6B
:102FE000681C05D0FEF730FA801BA84207D835B11F
:102FF00020684069C0430006ECD4002070BD00206A
:1030000044F8300F20216173A073216941F0200141
:1030100021612073E2E700007FB500241548009489
:10302000019402941249039401604FF48031C0E985
:10303000011401250461057680F820400E49C0E99D
:103040000A14C561C46080F830404561FDF705FE93
:1030500008B1FDF755FD0420CDE90005694602944D
:103060000448FDF74FFD002801D0FDF749FD7FBD65
:1030700000200140741600200100000F094808B527
:10308000016841F4800101600068002200F48000C2
:10309000009011463A20FEF7E3FBBDE808403A20D5
:1030A000FEF7D0BB3038024070B586B014216846B8
:1030B000FDF7D2F82B480024016841F010010160AF
:1030C000016801F010010591016841F08001016083
:1030D000016801F080010591016841F0040101607F
:1030E000016801F004010591016841F001010160EE
:1030F000016801F001010591016841F008010160DA
:10310000016801F008010591016841F002010160C8
:103110000068154E00F0020001220590114630466D
:10312000FEF78DF9002202213046FEF788F91C20B7
:1031300001258DE8310069463046FEF783F80F20FF
:103140008DE8310069460948FEF77CF803200090BD
:10315000CDE90154694630460394FEF773F806B092
:1031600070BD0000303802400010024000080240EC
:103170000D4810B50B4901600C49416000214FF426
:1031800080428160C0E9031241618161C1610162D5
:10319000FEF760F9002803D0BDE81040FDF7B0BC91
:1031A00010BD000000540040BC160020801A06002C
:1031B00010B588B01C216846FDF74EF81548144933
:1031C000002401600621C0E9011440F2E731C0E9A2
:1031D00003148461FEF774FE08B1FDF791FC0D48FD
:1031E000FFF777FA08B1FDF78BFC6020CDE900040A
:1031F00002940022694607480494FFF704FA08B1D4
:10320000FDF77EFC0348FFF795F908B010BD0000FC
:10321000004401400819002010B588B01C21684600
:10322000FDF71AF815481449002401600621C0E989
:10323000011440F2E731C0E903148461FEF740FE57
:1032400008B1FDF75DFC0D48FFF743FA08B1FDF743
:1032500057FC6020CDE9000402940022694607482B
:103260000494FFF7D0F908B1FDF74AFC0348FFF7D3
:1032700061F908B010BD000000480140501900205D
:1032800010B58CB024216846FCF7E6FF00241648F0
:10329000099414490A94C0E900144FF6FF71C0E97B
:1032A00002410461446184610320CDE900040120EE
:1032B000CDE902040494CDE90540079469460A4823
:1032C0000894FEF745FF08B1FDF71AFC099409A917
:1032D00005480A94FEF7ACFD002801D0FDF710FC6C
:1032E0000CB010BD000001401017002010B58CB0CC
:1032F00024216846FCF7B0FF0024154809944FF0DC
:1033000080410A94C0E900144FF6FF71C0E9024100
:10331000046184610320CDE900040120CDE90204A9
:103320000494CDE905400794694609480894FEF7DE
:103330000FFF08B1FDF7E4FB099409A904480A94BA
:10334000FEF776FD002801D0FDF7DAFB0CB010BDCA
:103350005817002010B58CB024216846FCF77CFF7C
:1033600000241648099414490A94C0E900144FF641
:10337000FF71C0E90241046184610320CDE90004CA
:103380000120CDE902040494CDE905400794694683
:103390000A480894FEF7DCFE08B1FDF7B1FB09947A
:1033A00009A906480A94FEF743FD002801D0FDF75D
:1033B000A7FB0CB010BD000000040040A0170020C7
:1033C00010B58CB024216846FCF746FF002416484F
:1033D000099414490A94C0E900144FF6FF71C0E93A
:1033E0000241046184610320CDE900040120CDE99C
:1033F00002040494CDE90540079469460A480894FC
:10340000FEF7A6FE08B1FDF77BFB099409A9064863
:103410000A94FEF70DFD002801D0FDF771FB0CB0FA
:1034200010BD000000080040E817002010B58EB065
:1034300000240794089409940A940B941C2168466C
:103440000C94FCF709FF2A48284901600621C0E9CD
:10345000011440F2E731C0E903148461FEF730FD46
:1034600008B1FDF74DFB4FF48050079007A92048A5
:10347000FEF700FE08B1FDF743FB1D48FFF729F9F1
:1034800008B1FDF73DFB0B940BA919480C94FEF70E
:10349000CFFC08B1FDF734FB6020CDE900040294B5
:1034A0000022694612480494FFF7ADF808B1FDF711
:1034B00027FB042269460E48FFF7A5F808B1FDF77F
:1034C0001FFB082269460A48FFF79DF808B1FDF77F
:1034D00017FB0C2269460648FFF795F808B1FDF77F
:1034E0000FFB0348FFF726F80EB010BD000C00409C
:1034F000301800201CB500240F4800940D49019499
:10350000016040F24731C0E9011440F2CF7184619B
:10351000C160FEF7D5FC08B1FDF7F2FA00946946E8
:1035200005480194FEF784FC002801D0FDF7E8FA75
:103530001CBD0000001400407818002010B58CB0AD
:1035400000240794089409941C2168460A94FCF707
:1035500083FE1E481C4901600621C0E9011440F2A7
:10356000E731C0E903148461FEF7AAFC08B1FDF756
:10357000C7FA4FF48050079007A91448FEF77AFD68
:1035800008B1FDF7BDFA1148FFF7A3F808B1FDF740
:10359000B7FA6020CDE900040294002269460B4886
:1035A0000494FFF730F808B1FDF7AAFA042269463F
:1035B0000648FFF728F808B1FDF7A2FA0348FEF71E
:1035C000B9FF0CB010BD000000400140C018002041
:1035D0000C4810B50A4901604FF4E1314160002107
:1035E00081600C22C160C0E904128161C161FFF7F2
:1035F0003BFA002803D0BDE81040FDF781BA10BDAA
:1036000000100140981900200C4810B50A490160CB
:103610004FF4E1314160002181600C22C160C0E9BA
:1036200004128161C161FFF71FFA002803D0BDE8D1
:103630001040FDF765BA10BD00440040DC190020C1
:103640000C4810B50A4901604FF4E1314160002196
:1036500081600C22C160C0E904128161C161FFF781
:1036600003FA002803D0BDE81040FDF749BA10BDA9
:1036700000480040201A00200C4810B50A4901609B
:103680004FF4E1314160002181600C22C160C0E94A
:1036900004128161C161FFF7E7F9002803D0BDE89A
:1036A0001040FDF72DBA10BD00140140641A00202F
:1036B000FEE700002DE9F04700287DD08C4D002367
:1036C000102614270422894C29684FF0080C4FF06B
:1036D0000C09072826D2DFE800F02504264B87CD09
:1036E000FF0054F82100C17821B10178002919D0D8
:1036F000491E23E0417851B1491ECAB24270286880
:1037000054F82010087890420CD9401E09E08178C6
:10371000491E4170286854F8201088780828F3D989
:1037200008380870DBE054F82100C17841B1017815
:10373000837801F108029A4201D2491C0170CEE05F
:1037400082784178521E91420CDA491CC9B241700C
:103750002868C91F54F820201078884201DA401CDC
:103760001070BCE04370286854F820000370B6E085
:1037700054F82100C17800297BD14178904601EBB3
:10378000810102EBC102825C022A13D106EBC10265
:103790000CEBC1018258405A1388184410802868E5
:1037A00054F82000417801EB810107EBC10140583A
:1037B00000B18047286800E07BE054F820004178A1
:1037C00001EB810108EBC102825C052A61D106EBA5
:1037D000C10209EBC1018258084492ED000AD0ED04
:1037E000000A30EE200A38E054F82100C1780029A0
:1037F0007AD14178904601EB810102EBC102825CF3
:10380000022A13D106EBC1020CEBC1018258405AC7
:103810001388181A1080286854F82000417801EBAA
:10382000810107EBC101405800B18047286854F876
:103830002000417801EB810108EBC102825C052A7E
:103840004DD106EBC10209EBC1018258084492ED4B
:10385000000AD0ED000A30EE600A82ED000A286806
:1038600054F82000417801EB810107EBC101405879
:103870002FE039E054F8210090F801C00CEB8C0CDB
:1038800002EBCC02825C012A04D0042A0CD0032A69
:1038900012D024E0202922D206EBCC02805804EB7F
:1038A0008102491C506019E006EBCC01405800B180
:1038B0008047002014E00FE006EBCC0107EBCC02C0
:1038C0004158805829B10A880AB10B8001E00122D1
:1038D0000A8020B1804702E009B1491E2960012019
:1038E000BDE8F04700F00EB8BDE8F087141B0020DB
:1038F0003000002002490860012000F003B80000F9
:10390000141B00202DE9F0475D4C5E4D4FF004087C
:103910004FF0100900286DD000F0BEF8286854F868
:10392000200006784BE000BF06EB860A182303EB65
:10393000CA020244701A81B2062002F0C5FB286850
:1039400054F8207008EBCA00385C062836D2DFE84D
:1039500000F035351403352309EBCA0038580088C8
:1039600000283878A6EB000081B201D046A200E022
:1039700046A26C2002F0A8FB20E0F878F0B909EB31
:10398000CA0006233858B0F900203878301AC1B27E
:10399000542002F06FFB11E0F87878B909EBCA0007
:1039A00038580068FCF728FE41EC100B38780323E8
:1039B000301A81B20222542002F008FB761C2868DB
:1039C00054F82000017801F10802B24202DD827849
:1039D000B242A9DC296854F82110C97800294DD1D8
:1039E00041780078BDE8F047081A81B228A200208B
:1039F00002F06ABB286854F82000C17800293DD045
:103A0000067830E006EB860108EBC102825C022AF0
:103A100004D0052A17D0062A24D109E009EBC101F8
:103A200006234058B0F90020F01B81B25A2007E06D
:103A300009EBC101062340580268F01B81B22D201A
:103A400002F018FB0EE009EBC10140580068FCF7DA
:103A5000D3FD41EC100BF01B81B203230222542052
:103A600002F0B4FA761C286854F82000077807F1B1
:103A70000801B14202DD8178B142C3DCBDE8F087C4
:103A8000141B0020300000204F6E00004F666600BF
:103A90002D000000FEE7000010B502F055F90849BE
:103AA000064808A2096850F8210041780078BDE86E
:103AB0001040081A81B2002002F006BB141B00203F
:103AC000300000202D00000070477047FDF760BEF9
:103AD00030B593B030216846FCF7BEFB14210CA82A
:103AE000FCF7BAFB1D480025016841F080510160D8
:103AF000006800F0805011901948016841F480413D
:103B000001600068022400F48040119001200090C0
:103B1000000401908001CDE9064008AA0420A821F4
:103B200082E813000B906846FDF7B6FF08B172B645
:103B3000FEE70CA90F2081E831004FF4A0500F9050
:103B40004FF48050109005210CA8FDF7BBFE002813
:103B500001D072B6FEE713B030BD0000403802401D
:103B6000007000400248016841F470010160704734
:103B700088ED00E070B557482DED028BFEF726FC6E
:103B800055480268516A554B0020506249421980DD
:103B900053490A68516A534B50624942198052494D
:103BA0000A68516A514B506249421980504909686C
:103BB0004A6A504B1A8048624F48D0ED000A9FED88
:103BC0004F0A02F0B9FB4E484E4C0078A0B34E4D60
:103BD000012839D002283FD0032845D09FED4B8BD8
:103BE000042849D0052851D0072857D006285DD091
:103BF000082863D0092869D1464890F9000000EEF2
:103C0000100AB8EEC00ADFED440A80EE201A11EE69
:103C1000100AFCF7F1FC53EC182BFCF7CFFB41EC3E
:103C2000100B95F90000B4F91C1080B2BDEC028BAA
:103C3000BDE8704001F026BFB4F91C00BDEC028B5A
:103C4000BDE8704002F056BB95F90000B4F91C10B5
:103C500080B29FED320BE9E795F90000B4F91C1032
:103C600080B29FED300BE1E795F90000B4F91C102C
:103C700080B29FED2E0BD9E795F90000B4F91C1026
:103C800080B2B0EE480AF0EE680ACFE795F900007E
:103C9000B4F91C1080B29FED270BC7E795F900001F
:103CA000B4F91C1080B29FED250BBFE795F9000019
:103CB000B4F91C1080B29FED230BB7E795F9000013
:103CC000B4F91C1080B29FED210BAFE7BDEC028B65
:103CD00070BD000078180020101700203E00002062
:103CE0005817002040000020A01700203C000020B2
:103CF000E8170020420000202C00002000000000F7
:103D000074000020B41C0020750000204AD8124D19
:103D1000FB21094036000020000034434AD8124DF0
:103D2000FB21F93F4AD8124DFB21F9BF00000000EA
:103D3000000000004AD8124DFB21E93F4AD8124D3D
:103D4000FB21E9BF3822CE797CD902403822CE79D6
:103D50007CD902C0F0B50268254C264D264E274F6F
:103D6000274B4FF0804CA04209D0604507D0A842B5
:103D700005D0B04203D0B84201D0984204D122F01D
:103D8000700E4A6842EA0E02A0421BD0604519D06C
:103D9000A84217D0B04215D0B84213D0984211D0E3
:103DA000184DA8420ED0184DA8420BD0174DA8426E
:103DB00008D0174DA84205D0164DA84202D0164D86
:103DC000A84203D122F44075CA682A434D6922F003
:103DD00080022A4302608A68C2620A688262A04244
:103DE00001D0984201D10969016301214161F0BD0F
:103DF000000001400004004000080040000C0040AA
:103E000000040140004001400044014000480140DE
:103E100000180040001C00400020004010B501F0D8
:103E20001F030121046A99408C430462016A9A408D
:103E30001143016210BD10B5846842EA032224F4E4
:103E40007F440A432243826010BD826822F07002E0
:103E50000A4342F00701816070470000F0B5026A32
:103E600022F001020262036A42688469124E24F061
:103E700073050C682C4323F002058B682B430D4D12
:103E8000A84201D0B04205D123F00807CB683B43DC
:103E900023F00403A84201D0B04205D14D6922F4B9
:103EA000407215438A692A434260846149684163CC
:103EB0000362F0BD0000014000040140F0B5026A59
:103EC00022F010020262026A436884690D6824F4D9
:103ED000E64444EA05248D6822F0200242EA0512F5
:103EE0000F4D104EA84201D0B04206D1CF6822F04B
:103EF000800242EA071222F04002A84201D0B042FA
:103F000007D14D6923F4406343EA85038D6943EA91
:103F1000850343608461496881630262F0BD0000EB
:103F20000000014000040140F0B5026A22F48072F2
:103F30000262026A4368C46922F4007224F07305C5
:103F40000C68124E2C438D6842EA05220E4DA842A1
:103F500001D0B04206D1CF6822F4006242EA0722C3
:103F600022F48062A84201D0B04207D14D6923F407
:103F7000405343EA05138D6943EA05134360C46166
:103F80004968C1630262F0BD0000014000040140C5
:103F900030B5026A22F480520262046A4268C36940
:103FA0000D6823F4E64343EA05238D6824F40054A6
:103FB00044EA0534084DA84202D0084DA84204D175
:103FC0004D6922F4804242EA85124260C361496829
:103FD0000164046230BD00000000014000040140A3
:103FE00010B5036A046A24F001040462846924F0B1
:103FF000F00444EA021423F00A020A4384610262D4
:1040000010BD10B5036A23F0100303628369046ACC
:1040100023F4704343EA023224F0A00343EA01117F
:104020008261016210BD10B5806B0021C185C18421
:10403000FEF7E5FB10BD01680C3151E8002F22F4BA
:10404000907241E80023002BF5D10168143151E84A
:10405000002F22F0010241E80023002BF5D1016B73
:10406000012909D101680C3151E8002F22F010021A
:1040700041E80023002BF5D1202180F83E100021DB
:104080000163704708B590F83E10222901D0022044
:1040900008BD82684FF480539A4201D1016921B171
:1040A000816A9A421BD04AB10AE00268816A52686A
:1040B000C2F308020A80816A891C08E0026972B1B1
:1040C0000268526802F07F020A70816A491C8162AC
:1040D000C18D491E0904090CC18503D019E002688D
:1040E0005268F1E70168CA6822F02002CA600168DC
:1040F000CA6822F48072CA6001684A6922F001022B
:104100004A61202180F83E10016B012903D0FEF79F
:10411000C5FD002008BD0021016301680C3151E894
:10412000002F22F0100241E80023002BF5D1016896
:104130000A68D20602D50A6849680091818DFEF7A7
:104140005DFBE6E770B5044600680169E26821F4AA
:104150004051114301612169A068E2690843616926
:10416000114308432168CA6849F20C639A43024329
:10417000CA6020684169A26921F44071114341611C
:1041800031492068884202D03049884202D1FDF787
:1041900043FC01E0FDF730FCE269002319216425AE
:1041A0003226B2F5004F626828D0A0FB0101930FC0
:1041B0009200FCF707F80146B0FBF5F06FF018022B
:1041C000504301EB800006EB0010B0FBF5F000F06F
:1041D000F002B1FBF5F002EB0012B1FBF5F06FF06D
:1041E0001803584301EB800006EB0010B0FBF5F01C
:1041F00000F00F0021681044886070BDA0FB010131
:1042000092185B41FBF7DEFF0146B0FBF5F00201BF
:10421000B1FBF5F06FF01803584301EB800006EB9B
:10422000C000B0FBF5F000F0F80002EB4002B1FB7B
:10423000F5F0584301EB800006EBC000B0FBF5F051
:1042400000F00700D6E70000001001400014014014
:1042500081628285C28500210164222280F83E208D
:1042600080F83C10016921B10168CA6842F480728B
:10427000CA6001684A6942F001024A610068C16887
:1042800041F02001C160002070472DE9F0419846BF
:1042900017460E460446069D27E0681C25D02DB122
:1042A000FDF7D2F8A0EB0800A8421ED920680C3018
:1042B00050E8001F21F4D07140E80012002AF5D127
:1042C0002068143050E8001F21F0010140E800127E
:1042D000002AF5D1202084F83D0084F83E0000201B
:1042E00084F83C000320BDE8F0812068006836EACD
:1042F000000004D00020B842CFD00020F3E7012016
:10430000F9E700000148FEF77BBA00009819002089
:104310000148FEF775BA0000DC1900200148FEF7DD
:104320006FBA0000201A00200148FEF769BA0000A9
:10433000641A002070B51F4C002520466178007873
:1043400031B1012907D002290AD003290FD027E073
:10435000012803D024E0032822D10220607022E04B
:104360002E281DD103216170E070A5701BE0A1789B
:10437000E378114A994205D222F8110001F10101B6
:10438000A17010E00CD11088AC2805D15088DA2833
:1043900002D10AA000F01AF864210748FBF75CFF7D
:1043A000A5706570E570BDE87040012201490548BF
:1043B000FEF75EBC78000020881D002072656376E1
:1043C00021212100201A0020FEE700000FB4054B38
:1043D00010B503A9044A029800F064FD10BC5DF812
:1043E00014FB0000AD5200087C00002003B40198CB
:1043F0004100009850EAC12018BF04204A0D18BFA0
:1044000040F0010040F2FF72B2EB515F08BF40F094
:104410000200012808BF052002B070470907090EF5
:10442000002804DB00F1E02080F80014704700F061
:104430000F0000F1E02080F8141D7047000000001C
:1044400010B52F499FED2C1B2DED020B84B0059864
:1044500020F000408842D8BF9DED040B2DDD294996
:10446000884209D1049840B94FF0010000F014FDD2
:1044700000F0E2FC06B010BD05DB9DED040B00F082
:10448000CFFC06B010BD68469DED040B00F0E0F8CF
:1044900010F0030004BF9DED021B9DED000B0CD03E
:1044A00001280ED09DED021B9DED000B022817D0B8
:1044B000012000F01DFC06B010BD00F0E5FA06B0CA
:1044C00010BD9DED021B9DED000B012000F010FCC6
:1044D00051EC100B81F0004106B041EC100B10BD07
:1044E00000F0D2FA51EC100B81F0004106B041EC23
:1044F000100B10BD000000000000000000000000D4
:10450000FB21E93F0000F07F10B52F499FED2C1BE8
:104510002DED020B84B0059820F000408842DCBFEE
:1045200000209DED040B32DD2849884209D1049812
:1045300040B94FF0010000F0AFFC00F07DFC06B088
:1045400010BD05DB9DED040B00F06AFC06B010BD4C
:1045500068469DED040B00F07BF810F0030011D0CD
:10456000012818D09DED021B9DED000B02281AD0EA
:1045700000F08AFA51EC100B81F0004106B041ECDA
:10458000100B10BD9DED021B9DED000B012000F0F6
:10459000AFFB06B010BD9DED021B9DED000B00F0C2
:1045A00073FA06B010BD012000F0A2FB51EC100B15
:1045B00081F0004106B041EC100B10BD000000007E
:1045C0000000000000000000FB21E93F0000F07F38
:1045D00000B52DED048BB0EE409AF0EE609A83B0FA
:1045E00051EC190BFCF72DF941EC180B18EE100AE1
:1045F00018EE901A8DED008B002818BF012008439B
:1046000020F00040C0F17F6000F1E040C00F14D006
:1046100019EE101A19EE900A8DED009B002918BFB3
:104620000121084320F00040C0F17F6000F1E0402C
:10463000C00F04BF012000F02FFCB0EE480A03B009
:10464000F0EE680ABDEC048B00BD00000000000025
:104650002DE9F14F04462DED020B2DED088B8AB0AC
:104660009FEDE70B80ED020B139EE74826F0004517
:1046700085420ADC9DED120B002084ED000B0AB090
:10468000BDEC088B03B0BDE8F08FE0489FEDE0ABD8
:104690009FEDE1BBA84247DDE14F9FEDE39B9FED1E
:1046A000E48B9DED120B53EC1A2B51EC100B002EEA
:1046B0001CDDFBF77DFE41EC100BBD4208D053EC36
:1046C0001B2B51EC100BFBF773FEC4E900010BE050
:1046D00053EC192B51EC100BFBF76AFE53EC182B23
:1046E000FBF766FEC4E900010120C8E7FBF7BFFD48
:1046F00041EC100BBD4208D053EC1B2B51EC100BBE
:10470000FBF7B5FDC4E900010BE053EC192B51ECAC
:10471000100BFBF7ACFD53EC182BFBF7A8FDC4E91D
:1047200000014FF0FF30AAE7C348A84279DB9DEDB6
:10473000120B51EC100B00F0ADFD41EC180B9FED8E
:10474000C00B53EC102BFBF739FE9FEDBF1B53EC56
:10475000112BFBF78CFDFBF730FF0746FBF70FFF34
:1047600041EC190B53EC1A2BFBF728FE53EC182BDA
:10477000FBF721FE41EC180B53EC1B2B51EC190BF2
:10478000FBF71CFEDFF8C8A241EC100B4FEA1558EE
:104790000125FA4453EC102B51EC180BFBF708FEE3
:1047A000032DC4E900013DD0C1F30A5005EB4511CA
:1047B000A8EB00001139814234DA0AEB051BB0EE98
:1047C00048AA9BED000BF0EE68AA53EC102B51ECBD
:1047D000190BFBF7F3FD41EC1B0B51EC1A0B53ECDF
:1047E0001B2BFBF7E5FD41EC180B51EC1A0B53ECBE
:1047F000182BFBF7DDFD53EC1B2BFBF7D9FD9BEDD5
:10480000020B41EC1A0B53EC102B51EC190BFBF77C
:10481000D5FD53EC1A2BFBF7CBFD41EC100B6D1CB7
:10482000B8E70EE0002EA8BF3846BFF628AF94EDDB
:10483000000B51EC100B81F00041C4E900017842FB
:104840001DE7C6F3130040F4801EC6F30A50A0F221
:10485000F530471100F01F05C5F12000DDF848B024
:1048600008900020069007900520EC467949002D1D
:1048700007EB0002794408BF51F8221009D051F823
:10488000223001EB8201AB404A68089922FA01F11B
:104890001943A1FB0E26A1FB0B131A449A4234BF05
:1048A0000123002303EB06080CEB8003D3E901A6E8
:1048B0000E448E4234BF0121002192448A4411B13A
:1048C000924502D903E0924501D2012100E0002186
:1048D000C3E901A641444CF82010011EA0F10100DB
:1048E000C4DC029800F10050850F0298DDE90367EF
:1048F0008000DDF81480FBF742FE41EC1A0B3046D5
:10490000FBF74EFE9FED541B53EC112BFBF756FDAE
:1049100041EC1B0B3846FBF743FE9FED511B53EC5C
:10492000112BFBF74BFD41EC180B4046FBF738FE13
:104930009FED4D1B53EC112BFBF740FD41EC190B88
:1049400051EC180B53EC192BFBF791FC53EC1B2B80
:10495000FBF78DFC53EC1A2BFBF789FCCDE9080122
:10496000002008909DED080B53EC1A2B51EC100B16
:10497000FBF71EFD53EC1B2BFBF71AFD53EC182B1A
:10498000FBF716FD53EC192BFBF715FD9FED381BBC
:1049900053EC112BFBF712FD9FED370B41EC180B7D
:1049A00053EC102B9DED080B51EC100BFBF706FDA3
:1049B00053EC182BFBF75BFC9FED310B41EC180B14
:1049C00053EC102B9DED080B51EC100BFBF7F6FC94
:1049D00053EC182BFBF74BFC41EC100B139810F029
:1049E000004F06D06D4251EC100B81F0004141ECBC
:1049F000100B284684ED000B41E60000000000008B
:104A00000000000000000000FB21E93F7CD90240CB
:104A100000004054FB21F93F3163621A61B4D03D7C
:104A2000FB21F93F000000000000601A61B4D03D96
:104A30007370032E8A19A33BFB213941000000004B
:104A400083C8C96D305FE43F000000000000E03F14
:104A50000A2A000058290000000000000000103E53
:104A6000000000000000103C000000000000103AB0
:104A7000182D4454FB21F93D3326A611460B113C59
:104A800000000054FB21F93D10B52DED040B2DED78
:104A9000088B82B0B0EE419AF0EE619A0B9820F04C
:104AA00000449FED4BABB4F1795F11DA9DED0A0B39
:104AB00051EC100BFBF781FD002801BFB0EE4A0A54
:104AC000F0EE6A0A02B0BDEC088B04BF04B010BD62
:104AD0009DED0A0B53EC102B51EC100BFBF76EFC09
:104AE00041EC180B3C480621B0EE480AF0EE680A8B
:104AF000784400F081F853EC182B51EC100BFBF7C5
:104B00005DFC9DED0A0B41EC1B0B53EC192B51EC9A
:104B1000100BFBF753FC41EC190B53EC1B2B51EC26
:104B2000180BFBF74BFC53EC192BFBF741FC9FEDEB
:104B30002C0B41EC190B53EC102B51EC180BFBF721
:104B40003DFC41EC100B2848844210DA53EC192B41
:104B500051EC100BFBF72CFC53EC1A2BFBF72BFC46
:104B600041EC100B02B0BDEC088B04B010BD1F4827
:104B7000A042BCBF9FED1E1B8DED001B06DBA4F504
:104B800000100190002000909DED001B51EC100BD7
:104B900053EC112BFBF70CFC9DED000B41EC180BBB
:104BA00053EC102B51EC1A0BFBF702FC41EC1A0BE7
:104BB00053EC192B51EC180BFBF7FAFB53EC1A2BA7
:104BC000FBF7F9FB41EC100BCCE700000000000004
:104BD000000000000000F03F7C2600000000000004
:104BE000000000000000E03F3333D33F0000E93F06
:104BF000000000000000D23F70B504462DED028B8E
:104C00004D1E00EBC500B0EE408AF0EE608A90EDDC
:104C1000000B35F0060017D053EC182B51EC100B9D
:104C2000FBF7CCFB41EC100B6D1E04EBC50090EDC7
:104C3000001B51EC100B53EC112BFBF718FB41EC54
:104C4000100B35F00600E7D1022D36D0042D1CD014
:104C5000062D1CBFBDEC028B70BD53EC182B51EC24
:104C6000100BFBF7ABFB94ED0A1B53EC112BFBF77E
:104C7000FEFA53EC182BFBF7A1FB94ED081B53EC49
:104C8000112BFBF7F4FA41EC100B53EC182B51EC01
:104C9000100BFBF793FB94ED061B53EC112BFBF76A
:104CA000E6FA53EC182BFBF789FB94ED040B53EC5D
:104CB000102BFBF7DCFA41EC100B53EC182B51ECEA
:104CC000100BFBF77BFB94ED021B53EC112BFBF756
:104CD000CEFA53EC182BFBF771FB94ED001B53EC51
:104CE000112BFBF7C4FABDEC028B41EC100B70BD2D
:104CF00031B504462DED040B2DED0A8BB0EE41BA13
:104D0000F0EE61BA0B989DED0A0B20F00040B0F177
:104D1000795F0DDA51EC100BFFF768FB042808BF30
:104D200000F09AF89DED0A0BBDEC0A8B05B030BD82
:104D300053EC102B51EC100BFBF740FB41EC180B24
:104D40009DED0A0B53EC182B51EC100BFBF736FBC7
:104D500041EC190B2C48B0EE480AF0EE680A052128
:104D60007844FFF749FF9FED2ACBB0EE40AAF0EE62
:104D700060AA9CB353EC1C2B51EC190BFBF71EFBE8
:104D800041EC1C0B53EC1A2B51EC190BFBF716FBE7
:104D90009FED210B41EC190B53EC102B51EC1B0B2D
:104DA000FBF70CFB53EC192BFBF702FB53EC182B16
:104DB000FBF704FB53EC1B2BFBF7FAFA53EC1C2B11
:104DC000FBF7F6FA9DED0A1B53EC112BFBF7F3FAF8
:104DD000BDEC0A8B05B041EC100B30BDFFE753EC86
:104DE0001A2B51EC180BFBF7E9FA53EC1C2BFBF7D1
:104DF0003EFA53EC192BFBF7E1FA9DED0A1B53EC3D
:104E0000112BFBF734FAE3E7042500000000000053
:104E1000495555555555C5BF000000000000E03FFD
:104E200010B553EC102B51EC100BFBF720FA41ECB2
:104E3000100B10BD000000009FED050B10B553ECEA
:104E4000102B51EC100BFBF72BFB41EC100B10BDA2
:104E500000000000000000009FED050B10B553ECB2
:104E6000102B51EC100BFBF7A9FA41EC100B10BD05
:104E7000000000000000001002E008C8121F08C176
:104E8000002AFAD170477047002001E001C1121FCB
:104E9000002AFBD1704700000149086070470000FC
:104EA000800000202DE9F84F994692468846054635
:104EB000002706E025280AD051464A4690476D1C37
:104EC0007F1C28780028F5D13846BDE8F88F0023EC
:104ED00015F8011F18462E2915D115F8011F0423B6
:104EE0002A290DD06FF02F022978A1F13004092C66
:104EF00009D800EB800002EB400008446D1CF3E78A
:104F000058F8040B6D1C2A78002ADDD0632A07D0DC
:104F1000732A0FD0104651464A4690477F1C2AE01C
:104F200018F8042B8DF8002000218DF801106E4632
:104F3000012103E058F8046B4FF0FF315A074FF09E
:104F4000000401D409E0641C84420BDA8C42FADBD1
:104F5000325D002AF7D105E0641C8C42FCDB305D39
:104F60000028F9D1274404E016F8010B51464A46BF
:104F70009047641EF8D26D1CA3E7000070B52DEDBC
:104F8000048B00F0E1FE002127A2084601F09CF806
:104F9000284C9FED298B9FED2A9B2B4D4FF4FA76E1
:104FA0003046FCF73DF92948FBF752FE800503D552
:104FB0002648FBF74FFE60602448FBF77DFF6068E2
:104FC000FBF7EEFA53EC182BFBF7F8F953EC192B1F
:104FD000FBF766FAFBF754FBFBF70EFB41EC100BFB
:104FE00002231A460121002000F0F0FF1748FBF7CA
:104FF000E5FE0A211548FBF78BFE04212846FCF745
:1050000019FA0028CCD16420FCF70AF904212846BB
:10501000FCF710FA0028C3D1BDEC048B0120BDE8D9
:105020007040FEF76FBC00006164635F7465737469
:1050300028290000000000208FC2F5285C4F28407E
:105040000000000000AEA4400008024074160020DA
:1050500070B58AB004238DF8003000236C4605E05B
:10506000E6185B1CDBB23575142B02D2CD5C002D2B
:10507000F6D1234400211975CDE90321817801EB94
:105080008102491C00EBC2038170181D28222146B1
:10509000FBF7C9F80AB070BD70B58AB001238DF86E
:1050A000003000236C4605E0E6185B1CDBB235756A
:1050B0000D2B02D2CD5C002DF6D1234400211975B1
:1050C000CDE90321817801EB8102491C00EBC20389
:1050D0008170181D28222146FBF7A5F80AB070BD83
:1050E000F0B58BB002248DF80040109F00246D466F
:1050F00008E000BF05EB040C641CE4B28CF81460FB
:105100000D2C02D20E5D002EF4D12C44002121750D
:105110000193CDE90327817801EB8102491C00EB63
:10512000C2038170181D28222946FBF77CF80BB0BA
:10513000F0BDF0B58BB005248DF8004000246D461D
:1051400005E02F19641CE4B23E750D2C02D20E5DF1
:10515000002EF6D12C44002121758DED020ACDE9F7
:105160000323817801EB8102491C00EBC2038170AB
:10517000181D28222946FBF756F80BB0F0BD000099
:105180002DE9F05F00F0E0FD002135A2084600F0B7
:105190009BFF374E012030703648FCF713FF364F27
:1051A000DFF8D880DFF8D890DFF8D8A0DFF8D8B0E3
:1051B000364D00240523B7F900200121002000F01E
:1051C00059FF0523B8F900200221002000F052FF0A
:1051D0000523B9F900200321002000F04BFF05232F
:1051E000BAF900200421002000F044FFDBF80000A1
:1051F000FBF702FA41EC100B0223032205210020E9
:1052000000F0E4FE2248042104702846FCF712F95D
:105210000028CFD16420FCF703F804212846FCF7CE
:1052200009F90028C6D134701248FCF70BFF0022A0
:105230001146012001F0B8F800221146022001F0C9
:10524000B3F800221146032001F0AEF80022114607
:10525000042001F0A9F8BDE8F05F0120FEF752BB81
:10526000616E676C655F74657374282900000000C7
:105270000D000020781800203C0000203E00002097
:1052800040000020420000202C00002000080240C6
:105290007400002082B0CDE9000121F000400190AF
:1052A0009DED000B02B051EC100B704713B50A23B3
:1052B000012269460248FDF723FD00981CBD00004D
:1052C000981900202DE9F05F00F03EFD00213CA27E
:1052D000084600F0F9FE3D48FCF774FE0024DFF8B4
:1052E000F090DFF8F0A03C4FDFF8F080DFF8F0B08E
:1052F0003C4E2546641CB9F80000E4B2844204D355
:10530000394800210125017003E015B9364809210B
:1053100001700523BAF900200121002000F0AAFE47
:105320000523B7F900200221002000F0A3FE052389
:10533000B8F900200321002000F09CFE0523BBF9F2
:1053400000200421002000F095FE28480068FBF7AB
:1053500053F941EC100B022303220521002000F039
:1053600035FE0A20FBF75CFF04213046FCF762F8AB
:105370000028BFD16420FBF753FF04213046FCF71F
:1053800059F80028B6D11148FCF75CFE00221146FE
:10539000012001F009F800221146022001F004F872
:1053A00000221146032000F0FFFF002211460420D6
:1053B00000F0FAFFBDE8F05F0120FEF7A3BA00009D
:1053C000667265655F6D6F76652829007818002024
:1053D000380000203C0000203E000020400000205B
:1053E0004200002000080240740000202C00002031
:1053F0002DE9F0430D462DED048B95B0B0EE408ABB
:10540000F0EE608A04000F464FF030084FF02E098E
:105410009FED449B1CD051EC180BFBF7CEF80646D1
:1054200053EC182B51EC190BFBF712F903D22D207A
:1054300004F8010B11E053EC182B51EC190BFBF79E
:10544000EFF80AD184F8008084F8019084F8028093
:1054500015B0BDEC048BBDE8F0833046FBF78FF848
:1054600053EC182BFAF7A7FF41EC100B9FED2F8B95
:1054700008E000BF53EC182B51EC100BFAF79EFF1D
:1054800041EC100B7F1EFFB2F4D251EC100BFBF776
:1054900094F8024600206B465FF00A0196FBF1F794
:1054A00001FB176796FBF1F643F82070401CC0B271
:1054B000002EF3D10CE000BF03EB800656F8046C1D
:1054C000002E00DA76423036401E04F8016BC0B27E
:1054D0000028F1D1002DBBD004F8019B7AB10CABB0
:1054E00092FBF1F601FB162692FBF1F243F82060E5
:1054F000401C6D1EC0B215F0FF05F1D10EE084F81E
:105500000080A5E703EB800151F8041C002900DAB4
:1055100049423031401E04F8011BC0B20028F1D1CD
:1055200096E70000000000000000000000000000FE
:10553000000024403FB5002200280DD06C46002911
:1055400006DA4FF02D0300F8013BC1F1000112E033
:1055500003D14FF0300101703FBD4FF00A0591FBC0
:10556000F5F305FB1313002B00DA5B4291FBF5F119
:10557000A354521CD2B20029EFD107E0A11811F8B0
:10558000011C3031521E00F8011BD2B2002AF5D1A5
:105590003FBD000010B5314C01212046FBF74AFF0A
:1055A00038B96420FBF73CFE01212046FBF742FF9F
:1055B00028B102212046FBF73DFF10B109E004208D
:1055C00010BD6420FBF72CFE02212046FBF732FFC2
:1055D00028B104212046FBF72DFF10B109E002207D
:1055E00010BD6420FBF71CFE04212046FBF722FFC0
:1055F00030B11B4C04212046FBF71CFF10B109E021
:10560000062010BD6420FBF70BFE04212046FBF7AB
:1056100011FF28B108212046FBF70CFF10B109E06B
:10562000052010BD6420FBF7FBFD08212046FBF799
:1056300001FF28B110212046FBF7FCFE10B109E064
:10564000012010BD6420FBF7EBFD10212046FBF785
:10565000F1FE08B1002010BD032010BD000802407B
:1056600000100240FCF79CF8FEF732FAFDF71CFD33
:10567000FDF704FDFDF7ACFFFDF7FEFFFDF778FD3C
:10568000FDF7C2FFFDF7D2FEFDF792FDFDF7C4FD69
:10569000FDF754FFFDF7F4FDFDF72CFFFDF726FEA7
:1056A000FDF758FEFDF78CFEFDF7B6FCFDF7C8FFD1
:1056B00041A0FEF78BFE012243494448FDF7D8FA8A
:1056C000434801F04FF8434800F0EAFF4248FBF737
:1056D00075FB0A214048FBF71BFB00F04FFB00F075
:1056E00033FB00F0CFF800F09DFF00213B48FDF7B1
:1056F0001FF804213948FDF71BF808213748FDF74A
:1057000017F80C213548FDF713F800213448FDF750
:105710000FF804213248FDF70BF800213148FDF75E
:1057200007F800213048FDF703F82C4800240168F1
:105730004C6301688C630168CC630068046428488A
:1057400001684C6300688463264800684463264807
:10575000006844633C212548FCF7F0FD23480068BD
:1057600044623C212248FCF7E9FD2148006844627C
:105770003C212048FCF7E2FD1E48006844623C21C1
:105780001D48FCF7DBFD1C48006844621B4C1C4DA7
:10579000FFF700FFFDF78EFF286854F82000C0785F
:1057A00028B10020FEF7AEF86420FBF739FD052094
:1057B000FBF736FDECE7000053797374656D5F57B6
:1057C000616B6555700A00000C00002098190020DC
:1057D000641A0020201A00207416002030180020BF
:1057E000C0180020081900205019002010170020B0
:1057F00058170020A0170020E8170020141B0020D5
:10580000300000203EB500F09FFA002115A20846A6
:1058100000F05AFC30200090019003460290164A96
:105820000021282000F022FB052000210090134BCE
:105830001022084600F0A0FB114C04212046FBF783
:10584000F9FD0028F9D16420FBF7EAFC0421204689
:10585000FBF7F0FD0028F0D1BDE83E400120FEF747
:1058600051B800006D656E755F66756E635F746537
:10587000737428290000000048700008A86F000811
:105880000008024038B53B4A3BA1A2F27C50FFF72A
:1058900003FC3C4A3CA1A2F6F820FFF7FDFB3B4A83
:1058A0003BA13D48FFF7F8FB3C4A3DA13148FFF7DB
:1058B000CFFB3E4A3EA12F48FFF7CAFB3F4A40A11B
:1058C0002C48FFF7C5FB434A43A12A48FFF7C0FB1A
:1058D000444A45A12748FFF7BBFB464A46A1254855
:1058E000FFF7B6FB474A48A12248FFF7B1FB002368
:1058F000B6EE000A484A49A12248FFF71AFC0023E5
:10590000B7EE000A474A48A11E48FFF712FC0024E0
:105910000123474A47A11B480094FFF7E1FB0A23F4
:10592000464A47A119480094FFF7DAFB0523474A86
:1059300047A116480094FFF7D3FB0523474A48A127
:1059400012480094FFF7CCFB00239FED490A384A28
:1059500048A108320D48FFF7ECFB0323344A47A166
:105960000A480094FFF7BCFBBDE838400A48FDF741
:10597000C1BF00000006002066756E6374696F6E1B
:10598000000000007C0B002070696400F81000200B
:10599000737461746500000084000020C552000823
:1059A0003C667265655F6D6F76653E00A1610008BB
:1059B0003C7069645F72657365743E000558000849
:1059C0003C6D656E755F66756E635F746573743E7E
:1059D00000000000F16100083C70776D5F74657332
:1059E000743E00007D4F00083C6164635F74657322
:1059F000743E0000ED5B00083C6D6F76655F74657A
:105A000073743E00815100083C616E676C655F7481
:105A10006573743E000000006C0000205B615F6BEA
:105A2000705D0000700000205B615F6B645D0000D2
:105A3000000000205B74657374345D003800002042
:105A40005B666D5F74696D655D0000003600002067
:105A50005B666D5F6465677265655D00750000205B
:105A60005B67656E6572616C5F7370645D000000FA
:105A70009A99993E5B74657374335D005B746573CA
:105A800074365D002DE9F0410D462DED048B044682
:105A90009FED4D1B51EC100B53EC112BFAF7E7FB6C
:105AA00041EC180B9FED4A0B53EC102BFAF7D0FD8D
:105AB00009D29FED490B51EC180B53EC102BFAF760
:105AC00077FC41EC180BB0EE480AF0EE680AFEF7DE
:105AD000B7FCB0EE401AF0EE601AB0EE419AF0EE6C
